:020000040800F2
:1000000038110020AD0100083F160008291500082E
:100010003D160008470400083920000800000000D1
:10002000000000000000000000000000CD1A0008E1
:10003000990500080000000041160008CF1A0008CA
:10004000C7010008C7010008C7010008C701000870
:10005000C701000843160008C7010008C7010008CF
:10006000C7010008C7010008C7010008C701000850
:10007000C7010008C7010008C7010008C701000840
:10008000C7010008C7010008C70100080000000000
:100090000000000000000000000000009B050008B8
:1000A000C7010008C7010008C7010008C701000810
:1000B000C7010008C7010008C7010008C701000800
:1000C000C7010008C7010008C7010008451600085D
:1000D000C7010008C7010008E11F00080000000078
:1000E000C7010008C7010008C701000800000000A0
:1000F000000000000000000000000000C701000830
:1001000000000000C7010008C7010008C70100087F
:1001100000000000000000000000000000000000DF
:10012000C7010008C7010008C7010008C70100088F
:10013000C7010008000000000000000000000000EF
:10014000000000000000000000000000C7010008DF
:10015000C7010008C7010008C70100080D200008FA
:10016000C7010008C70100080000000000000000EF
:10017000000000000000000000000000000000007F
:1001800000000000C701000800000000000000009F
:10019000C7010008C7010008DFF80CD000F0E0F844
:1001A00000480047212500083811002006488047F4
:1001B00006480047FEE7FEE7FEE7FEE7FEE7FEE74C
:1001C000FEE7FEE7FEE7FEE7551B00089901000881
:1001D0002DE9F05F0546002092469B46884606467C
:1001E000814640241BE0284641464746224600F00F
:1001F0006FF853465A46C01A914110D3114618461B
:10020000224600F056F82D1A67EB01084F462246A9
:100210000120002100F04DF817EB00094E41201E8F
:10022000A4F10104DFDC484631462A464346BDE8D6
:10023000F09F40EA01039B0703D009E008C9121FA1
:1002400008C0042AFAD203E011F8013B00F8013B90
:10025000521EF9D27047D2B201E000F8012B491EBC
:10026000FBD270470022F6E710B513460A46044653
:100270001946FFF7F0FF204610BD30B505460020B7
:10028000034600E05B1C934205D2EC5CC85C201A7C
:1002900001D1002CF6D130BD70B5064601F0EEFE5E
:1002A000046805460A220021304600F021F82C603F
:1002B00070BD202A04DB203A00FA02F100207047CA
:1002C0009140C2F1200320FA03F319439040704794
:1002D000202A04DB203A21FA02F00021704721FA9B
:1002E00002F3D040C2F12002914008431946704702
:1002F0002DE9F04791460F4680460446002614F843
:10030000015B2DB100F03EF80068405DC007F6D1FA
:100310002B2D02D02D2D18D0641E4A46394620467A
:1003200000F034F827B13968A14201D1C7F8008044
:1003300071054FF002040BD54042002803DD01F0A7
:100340009DFE0460A007BDE8F08746F48066E4E700
:100350000028F8DA01F092FE04606FF00040F2E746
:10036000064C074D06E0E06840F0010394E8070002
:1003700098471034AC42F6D3FFF712FF0429000867
:100380002429000800487047002900082DE9F05F83
:1003900082460078002715468B460AF10104B946CB
:1003A000302801D09DB113E014F8010B0127782803
:1003B00003D0582801D045B10AE00DB1102D07D166
:1003C0000027102514F8010B02E0082500E00A259B
:1003D0000026B0460EE005FB080005FB06F10127EC
:1003E00001EB10461FFA80F8B6F5803F00D3B946FE
:1003F00014F8010B294600F018F80028EBDABBF1DD
:10040000000F05D00FB1641E00E05446CBF8004049
:10041000B9F1000F06D001F031FE02210160C81EC3
:10042000BDE8F09F48EA0640FAE73A2800D23038A3
:1004300020F02002412A01D3A2F13700884201D3E3
:100440004FF0FF307047FEE72DE9F0410B222AA163
:100450002C48FFF712FF2B4E2B4C012530B10A22FE
:100460002AA13046FFF709FF70B139E0F07A312850
:1004700005D0302805D028A001F0E0FD30E0E5707F
:100480002EE00020E0702BE0B07A1E4E0B363D28A7
:100490000DD0701E042225A10746FFF7EEFE80B1A5
:1004A000032224A13846FFF7E8FEE0B118E0304609
:1004B00001F03BF82061002801DD25710BE01EA052
:1004C00007E010480E3001F030F820610028F4DC1D
:1004D0001FA001F0B3FD314624A0226901F0AEFD5A
:1004E0000020BDE8F08107480D3001F01EF82061C2
:1004F0000028E2DC21A0ECE741542B4349504D4F4A
:1005000044453D00040100200000002041542B43DD
:10051000495053454E440000434D442056616C758C
:1005200065204572726F7221210D0A004255463DC9
:100530000000000045583D00434D442053454E44C3
:100540002053495A45204572726F7221210D0A00CD
:10055000434D442053454E44204255462053495A6A
:1005600045204572726F7221210D0A00533A25739E
:1005700020493A2564200D0A00000000434D442024
:1005800053454E442045582053495A4520457272E0
:100590006F7221210D0A000070474FF4807000F047
:1005A0001DB890F83510022903D080214165012043
:1005B0007047052180F835100068016821F00101BD
:1005C0000160002070470000B0F5807F02D1024931
:1005D000012088707047000000000020044910B519
:1005E0000A68024202D00860FFF7EEFF10BD00006B
:1005F000143C01402DE9F84FDFF860B100224FF0C4
:1006000001084FF0030A4FF00F090BF1040E00BF71
:100610000B6808FA02F42340A3426ED14D68022D04
:1006200001D0122D0ED1D50800EB850CDCF820503E
:100630005607F70E09FA07F6B5430E69BE402E437A
:10064000CCF82060066855000F790AFA05FC07F01F
:10065000030726EA0C06AF40374307604E68012EB9
:1006600005D0022E03D0112E01D0122E0ED1866895
:10067000CF6826EA0C06AF40374387604668A6433A
:100680000C79C4F30014944034434460C6688C6809
:1006900026EA0C06AC403443C4604C68E40056D5EE
:1006A0002F4C256845F480452560246822F0030519
:1006B00004F4804400942B4C2E19D6F80848950772
:1006C0002F0F09FA07F5AC43274DA84201D10025A9
:1006D00015E0264DA84201D1012510E0244DA84285
:1006E00001D102250BE0234DA84201D1032506E0EC
:1006F000214DA84202D1042501E028E00725BD4094
:100700002543C6F80858DBF800405D464E689C4318
:10071000F60300D51C432C60DEF8004075464E6899
:100720009C43B60300D51C432C600C4D08352C6847
:100730004E689C43F60200D51C432C60074D0C35D7
:100740002C684E689C43B60200D51C432C60521C9A
:10075000102AFFF45DAFBDE8F88F0000003C0140B7
:1007600044380240003001400000024000040240D2
:1007700000080240000C02400010024000690840DE
:1007800000D0012070470AB1816170470904FBE77E
:100790000148806870470000180000200248816806
:1007A0000278114481607047180000200B4810B592
:1007B000016841F400710160016841F480610160E9
:1007C000016841F480710160032000F077F8002097
:1007D00000F006F800F024F8002010BD003C0240B4
:1007E00070B50D4D04464FF47A712878B1FBF0F0E6
:1007F0000A490968B1FBF0F000F0D7FC48B9102CA9
:1008000007D200222146501E00F038F800206C600C
:1008100070BD012070BD00001800002014000020F1
:100820000E4808B5016841F480410160006800F499
:10083000804000900948001F016841F0805101602C
:100840000068002200F0805000901146052000F062
:1008500015F8BDE80840052000F002B84438024011
:10086000002809DB00F01F020121914040098000AF
:1008700000F1E020C0F8001170470000F0B40E4B0A
:100880001B680C46C3F30223C3F10705042D00D9EE
:100890000425191D072901D2002300E0DB1E0126D3
:1008A00006FA05F1491E214099409E40761E1640E9
:1008B0003143F0BC01F0D2BB0CED00E0064900F082
:1008C000070208684FF6FF03184040EA0220034A77
:1008D00010430860704700000CED00E00000FA05CE
:1008E0002DE9F0470E46050065D0DFF81481D8F8F1
:1008F0000000F7B200F00F00B04207D288F8007095
:10090000D8F8000000F00F00B04254D128683D4CE8
:10091000810712D5400703D5206840F4E0502060DD
:100920002878000703D5206840F4604020602068E4
:10093000A96820F0F000084320602878C0072DD077
:10094000304968680839012812D0022813D00328DA
:1009500011D00968890700292DDA216821F00301E7
:1009600001432160FFF714FF814641F2883A0EE00F
:1009700009688903EFE709688901ECE7FFF708FFD9
:10098000A0EB0901514502D90320BDE8F08720689A
:10099000696800F00C00B0EB810FEFD1D8F80010BF
:1009A000404601F00F01B14207D90770006800F01E
:1009B0000F00B04201D00120E7E72878400705D5B5
:1009C0002068E96820F4E050084320602878000798
:1009D00006D52068296920F4604040EAC100206003
:1009E00000F036F82168084AC1F30311515CC84091
:1009F000064908600020FFF7F3FE0020C5E700006D
:100A0000003C02400838024064280008140000201E
:100A10000448054900680968044AC1F38221515C11
:100A2000C8407047140000200838024074280008AD
:100A30000448054900680968044AC1F34231515C21
:100A4000C84070471400002008380240742800088D
:100A5000154810B5006810F00C02144813D0144962
:100A6000042A0FD0082A0ED10F4C241F22682368B5
:100A700002F03F025B0207D52068C0F38810A0FB9C
:100A8000010106E0084610BD2168C1F38811A1FBF1
:100A900000010023FFF79CFB2168C1F30141491CC1
:100AA0004900B0FBF1F010BD083802400024F4000A
:100AB00040787D012DE9F84F050076D02878DFF8E1
:100AC000F8B2BE4CC00749D0DBF800105846C1F35D
:100AD0008101012908D00068C0F3810002280AD1F1
:100AE000201D0068400206D52068800336D568685E
:100AF0000028E2D032E06868B0F5803F10D0B0F551
:100B0000A02F206810D020F480302060206820F4CE
:100B1000802020606868A0B1FFF73AFE06460CE02E
:100B2000206840F48030F4E740F480202060F7E74C
:100B3000FFF72EFE801B642873D820688003F7D54A
:100B40000CE0FFF725FE064605E000BFFFF720FE9C
:100B5000801B6428F0D820688003F7D42878DFF859
:100B6000608280074FF000093ED5DBF80010584640
:100B700011F00C0F09D00068C0F3810002280BD1DE
:100B80008D48001F0068400206D42068800715D5F4
:100B9000E868012809D111E0E868B8B10120C8F877
:100BA0000000FFF7F5FD064605E002E1FFF7F0FD66
:100BB000801B0228C0D820688007F7D520682969E3
:100BC00020F0F80040EAC10020600DE0C8F8009075
:100BD000FFF7DEFD064604E0FFF7DAFD801B022882
:100BE0001FD820688007F7D42878000722D5724ED6
:100BF000744869696C3671B101210160FFF7C8FD65
:100C0000074604E0FFF7C4FDC01B022809D830687E
:100C10008007F7D50EE0C0F80090FFF7B9FD074652
:100C200005E083E0FFF7B4FDC01B02287ED83068E2
:100C30008007F7D42878400768D5DFF87CA1002723
:100C40000AF1380ADAF80000C0000BD4DAF8001014
:100C500041F08051CAF80010DAF80000012700F0D6
:100C600080500090584E3068C00510D4306840F471
:100C700080703060FFF78CFD009005E0FFF788FD85
:100C80000099401A022851D83068C005F6D54A4E5E
:100C9000A868683601280FD00528306810D020F0E9
:100CA00001003060306820F004003060A868B8B1FE
:100CB000FFF76EFD00900FE0306840F00100F4E7B0
:100CC00040F004003060F7E7FFF762FD0099411A39
:100CD00041F28830814264D830688007F4D50EE054
:100CE000FFF756FD009007E0FFF752FD0099411A0B
:100CF00041F28830814254D830688007F4D42FB153
:100D0000DAF8001021F08051CAF80010A869C0B3C9
:100D1000DBF80010C1F3810102294AD002284846BD
:100D200007D0C8F86000FFF733FD00E039E0054662
:100D30003AE04746C8F86000FFF72AFD064604E09F
:100D4000FFF726FD801B02282BD820688001F7D4EE
:100D5000D5E907010843A96A1C4A490802EB014189
:100D60006A6A41EA8211084395F82C1040EA016151
:100D70001148001F016001203866FFF709FD054694
:100D800005E014E0FFF704FD401B022809D82068A5
:100D90008001F7D50BE000BFFFF7FAFC401B0228EB
:100DA00002D90320BDE8F88F20688001F4D4002028
:100DB000F8E70120F6E7000008380240003802405A
:100DC00000004742800E4742007000400000FFFFD5
:100DD0007047000038B5016804464A688868C04317
:100DE000430606D5C30704D1D3435B0601D4216C67
:100DF00005E0830708D4D3431B0605D4616C01B01A
:100E00002046BDE830400847830603D5430601D598
:100E1000C30551D4D3439B064ED443060AD494F859
:100E20005130032B49D0636D43F004036365CB68F5
:100E30008B680093830609D4636D43F001036365F7
:100E40008B6800930B6823F040030B60C00506D449
:100E5000606D40F008006065206880680090606DFB
:100E6000002829D02068416821F0E001416001207C
:100E700084F85100900701D4D00722D0206841683F
:100E800021F003014160114DE06C40B10565E06C5B
:100E9000FFF787FB18B1606D40F040006065A06C03
:100EA000002809D00565A06CFFF77BFB002803D064
:100EB000606D40F04000606538BDC868886800908B
:100EC00038BD2046FFF784FF38BD000051160008EA
:100ED00070B5040005D00025A56294F8510010B14A
:100EE00006E0012070BD84F85050204600F030F834
:100EF000022084F851002068016821F0400101605F
:100F0000D4E901010843D4E903121143084361699C
:100F10000843218B01F400710843E1690843216A09
:100F20000843A16A084321680860A069042101EA16
:100F30001040616A0843216848602068C16921F453
:100F40000061C1616565012084F85100002070BD19
:100F500010B586B0044614216846FFF783F9174997
:100F60002068884228D116480021026842F4805245
:100F70000260006800F4805005901148143802683F
:100F800042F001020260006800F001000590E020DC
:100F900000900220CDE90101032003900520049078
:100FA00069460848FFF726FB002211462320FFF779
:100FB00065FC2320FFF754FC06B010BD0030014053
:100FC00044380240000002402DE9F84F044690F8F2
:100FD000500000270A9E1D4692468B464FF001099D
:100FE00001280ED0012084F85000FFF7D1FB804685
:100FF00094F85100616801280CD0B1F5827F07D1C7
:1010000002E00220BDE8F88FA16809B9042801D0E8
:101010000227C2E0BBF1000F27D0BAF1000F24D0A5
:101020001DB394F85100042802D0052084F8510023
:1010300000206065C4F838A0E587A587C4F830B003
:10104000E586A5862064606420680168490603D4AB
:10105000016841F040010160E068B0F5006F606830
:1010600005D0E8B3012D46D07FE0012795E008B117
:10107000012D39D1206B21680088C860206B801C4D
:101080002063E08E401EE0862EE02068816889079C
:101090000FD5E18E69B1B9F1010F0AD1216B098831
:1010A000C160206B801C2063E08E401EE0864FF004
:1010B000000920688168C9070CD0E18F51B1C06870
:1010C000A16B0880A06B801CA063E08F401EE087AE
:1010D0004FF00109FFF75CFBA0EB0800B04200E015
:1010E00009E001D3701C50D1E08E0028CDD1E08FF3
:1010F0000028CAD13FE0206B216800780873206B7C
:10110000401C2063E08E401EE0862EE0206881684F
:1011100089070FD5E18E69B1B9F1010F0AD1216BB1
:1011200009780173206B401C2063E08E401EE0862E
:101130004FF0000920688168C9070CD0E18F51B1D8
:10114000C068A16B0870A06B401CA063E08F401EBC
:10115000E0874FF00109FFF71BFBA0EB0800B0424E
:1011600002D3701C01D010E07EB1E08E0028CDD1FA
:10117000E08F0028CAD142463146204600F070FA7E
:1011800028B101272020606507E0032705E0A0685B
:1011900018B92068C16880680090012084F8510067
:1011A000002084F8500038462CE710B5401EB0F1FE
:1011B000807F01D3012010BD4FF0E02460610F213A
:1011C000601700F04BFF0020A06107202061002085
:1011D00010BD704770B5026804461068D168536945
:1011E00010F00F0F50D003F0010501F49076354355
:1011F0005DD0C20705D0CA0503D5E26B42F00102FB
:10120000E263420705D5DA0703D0E26B42F002023F
:10121000E263820705D5DA0703D0E26B42F00402ED
:10122000E263020705D5DA0703D0E26B42F0080259
:10123000E263E26B002A33D0800604D5880602D52B
:10124000204600F0C7FC20684069E16BC0F38010C5
:10125000090700D428B3204600F0AEFC206841699D
:1012600049061AD5416921F040014161606BA0B186
:101270001B490165606BFFF794F9002810D0606B83
:10128000016DBDE870400847830610D58B060ED56A
:101290002046BDE8704000F09DBC2046FFF799FF56
:1012A00070BD2046FFF795FF0020E06370BD030688
:1012B00006D50B0604D52046BDE8704000F02CBED4
:1012C0004006F3D54806F1D5D168204621F040010B
:1012D000D160202184F8391000F025F970BD00009C
:1012E000A91B000870B5040004D094F8390000254B
:1012F00010B106E0012070BD84F83850204600F09F
:1013000023F8242084F839002068C16821F40051B2
:10131000C160204600F0AAFC2068016921F49041D8
:1013200001612068416921F02A0141612068C1689A
:1013300041F40051C160E563202084F8390084F84D
:101340003A00002070BD000030B587B0044614217B
:101350006846FEF787FF2B4D226800212A480223AA
:101360000324AA4223D1284A1032156845F40035D7
:101370001560126802F400320592026842F0010220
:1013800002600068CDE9021400F0010005900C2015
:10139000CDE900030720049069461C48FFF72AF9AD
:1013A000002211462620FFF769FA262025E0184D75
:1013B000AA4224D1144A1432156845F0200515605C
:1013C000126802F020020592026842F004020260F4
:1013D0000068CDE9021400F004000590C020CDE9BA
:1013E00000030820049069460A48FFF703F9002229
:1013F00011464720FFF742FA4720FFF731FA07B0BE
:1014000030BD00000044004030380240000002407F
:10141000001401400008024090F83A30202B22D1FD
:10142000F9B1F2B190F83830012B1CD0816282857D
:10143000C2850021C163222280F83A2080F838104A
:101440000168CA6842F48072CA6001684A6942F061
:1014500001024A610068C16841F02001C1600020BA
:101460007047012070470220704770472DE9F8430C
:10147000044690F839001F4616460D46202850D1E4
:10148000A5B19EB194F8380001284AD0012084F813
:1014900038004FF00008C4F83C80212084F839005F
:1014A000FFF776F9A6848146E68426E00120BDE8B0
:1014B000F883E08C401EE084A0684B46B0F5805F66
:1014C0004FF000024FF080012046009703D000F05B
:1014D00054FDE8B90DE000F050FDC8B92888216836
:1014E000C0F308004860206908B16D1C05E0AD1C20
:1014F00003E0216815F8010B4860E08C0028D8D182
:101500004B46002240212046009700F036FD08B1EE
:101510000320CCE7202084F8390084F838800020AC
:10152000C5E70220C3E77047FEE71CB500216B4604
:1015300007E05A54401C491C052902DD4FF0FF30DA
:101540001CBD02781AB10D2A01D00A2AF1D100205F
:1015500058541846FEF7A0FE1CBD000030B587B0F9
:1015600014216846FEF77EFE22480024016841F0FF
:1015700004010160016801F004010591016841F076
:1015800080010160016801F080010591016841F06E
:1015900001010160016801F001010591016841F05C
:1015A000020101600068144D00F002000590002265
:1015B00040212846FFF7E7F8A81500900F48CDE92D
:1015C000010469460E48FFF715F8402000900120FD
:1015D000CDE901040220039069462846FFF70AF886
:1015E000002211461720FFF749F91720FFF738F9B5
:1015F00007B030BD30380240000402400000111036
:10160000000002400C480B494FF4007201604FF497
:101610008271416000218160C1600161C0E90512F1
:101620000822C0E90721416281620A21C162FFF7F5
:101630004FBC0000003001402C000020FEE7704746
:10164000704770470148FFF7C5BB00002C00002021
:1016500010B5806B0021C187C186FFF7B9FB10BDB3
:1016600038B504461248134B0068B0FBF3F04FF452
:101670007A73584300906068B0F5827F0DD10B46B5
:10168000009200228021204600F0D6F970B1606DF2
:1016900040F020006065032038BD009830B1401E46
:1016A000009020688068C0430006F6D5002038BD51
:1016B0001400002000366E012DE9FF41FF200026B6
:1016C000324D8DF808008DF80C60324640212846D6
:1016D000FFF759F806208DF8040000F07BF8044667
:1016E000012240212846FFF74EF8002C4BD021461E
:1016F00027A000F0A3FC4FF6FF78444511D0E00787
:101700000FD0002240212846FFF73DF802208DF837
:10171000040000F05FF80446012240212846FFF74C
:1017200032F8214620A000F089FC64B30022402159
:101730002846FFF728F810208DF804000A27012317
:1017400003AA01A91F480097FFF73EFC23461E4A43
:1017500002A91C480097FFF737FC1B4801224021D3
:1017600006552846FFF70FF8174918A000F066FC49
:10177000154943462246A1F69800FFF777FE20461A
:1017800004B0BDE8F0810020FAE700000004024048
:101790005350495F5245475F494E545F5354545329
:1017A0005B25645D0D0A00005350495F5245475F59
:1017B00052585F4441545F4C454E5B25645D0D0AB1
:1017C000000000002C0000201C0900203E3E257374
:1017D0000000000031B584B00020FF250A240290EB
:1017E0008DF80450012301AA04A900940B48FFF7C7
:1017F000EBFB8DF80450012302AA01A907480094CD
:10180000FFF7E2FB01230DF1090201A9034800944F
:10181000FFF7DAFBBDF8080005B030BD2C00002052
:1018200070B5154D002240212846FEF7ACFF06207A
:10183000FFF7D0FF0446012240212846FEF7A3FF10
:1018400021460EA000F0FAFB002240212846FEF7B8
:101850009AFF0220FFF7BEFF0446012240212846DE
:10186000FEF791FF2246114609A000F0E7FB0CB1FC
:10187000FFF722FF002070BD000402405350495F73
:10188000494E545F5354545320253038780D0A0084
:101890005350495F52584441544C454E20253038EE
:1018A000782025640D0A00002DE9F74F002584B04B
:1018B0008B4682462F468DF808502E4642F2107411
:1018C0004FF483613A48FEF7CDFC03208DF8040005
:1018D0004FF6FF79DFF8DC8025E06D1CEDB20022C9
:1018E00040214046FEF74FFF9DF80400FFF772FFCE
:1018F0000646012240214046FEF745FF31462EA014
:1019000000F09CFB642D04D932A000F097FB012766
:101910000BE029463FA000F091FBA01E401E0128CD
:10192000FCDC4E4501D0B007D7D5BDF81850A81C37
:1019300084B2A00703D04FF6FC70E41C0440002FD3
:1019400032D10022402147464046FEF71CFFBAF143
:10195000000F01D0902000E091208DF804000A26AD
:10196000012302AA01A931480096FFF72DFB104878
:10197000BDF8181058382A46A0F858100C4D594692
:10198000A81CFEF756FC2346A5F580622946274889
:101990000096FFF719FB012240213846FEF7F3FEBF
:1019A000A91C23A000F04AFB07B0BDE8F08F00009F
:1019B00004050020000402405350495F5245475F30
:1019C00054585F425546465F415641494C5B256439
:1019D0005D0D0A0053504920434D442074696D65E4
:1019E0006F75742D2D2D2D2D2D2D2D2D2D2D2D2D56
:1019F0002D2D2D2D2D2D2D2D2D2D2D2D2D2D2D2D17
:101A00002D2D2D2D2D2D2D2D2D2D2D2D2D2D0D0A49
:101A1000000000005350492053454E442052657445
:101A200072795B25645D0D0A000000002C00002027
:101A30003C3C2573000000002DE9F0411D4617468F
:101A40000E460446DDF8188008E0681C06D0FEF754
:101A50009FFEA0EB0800A8420BD255B12068806819
:101A600036EA000030D00020B842EED10020BDE8B8
:101A7000F0812068416821F0E00141606068B0F5C4
:101A8000827F0BD1A068B0F5004F02D0B0F5806F17
:101A900004D12068016821F040010160A06AB0F51E
:101AA000005F09D12068016821F4005101602068BD
:101AB000016841F400510160012084F851000020C8
:101AC00084F850000320D2E70120CDE77047FEF7ED
:101AD00065BE000030B593B030216846FEF7C2FB0A
:101AE00014210CA8FEF7BEFB18480025016841F040
:101AF00080510160006800F0805011901448016826
:101B000041F4404101600068022400F4404011901B
:101B1000012003901020009406940490CDE9075012
:101B2000C020CDE9090404200B906846FEF7C2FFEF
:101B30000CA90F2081E83100E002CDE90F05032157
:101B40000CA8FEF7CDFE13B030BD000040380240B7
:101B5000007000401048016841F4700101600F48B6
:101B6000016841F0010101600C4A00210832116056
:101B700002680B4B1A400260031D0A4A1A60026891
:101B800022F48022026005480C30016002495806A8
:101B9000803908607047000088ED00E0003802409E
:101BA000FFFFF6FE1030002410B5806B0021C185C8
:101BB000C184FFF70EFB10BD0168CA6822F4907261
:101BC000CA6001684A6922F001024A61202180F856
:101BD0003A10704710B590F83A10222901D002202F
:101BE00010BD8168B1F5805F11D0016900290168DD
:101BF0001FD0496801F07F03816A4A1C82620B7022
:101C0000C18D491E0904090CC18518D02BE0026959
:101C1000816A002A0268526805D0D2B20A80816ABD
:101C2000491C8162ECE7C2F308020A80816A891CC0
:101C3000F7E74A68816A4B1C83620A70E0E7016833
:101C4000CA6822F02002CA600168CA6822F4807261
:101C5000CA6001684A6922F001024A61202180F8C5
:101C60003A10FFF702FC002010BD00002DE9F04102
:101C7000044600680169E26821F4405111430161A2
:101C80002169A068E2690843616911432268084339
:101C9000D16849F20C6399430143D16020684169DE
:101CA000A26921F4407111434161E2696425B2F5F2
:101CB000004F9748974922684FF032083FD08A4238
:101CC00001D082427CD1FEF7B3FE00EBC00101EBF4
:101CD000001061688900B0FBF1F6FEF7A9FE00EB89
:101CE000C00101EB001061688900B0FBF1F0B0FBAE
:101CF000F5F06FF01801484306EB800108EB011086
:101D0000B0FBF5F000F0F006FEF792FE00EBC0012C
:101D100001EB001061688900B0FBF1F0B0FBF5F059
:101D200006EB0016FEF784FE00EBC00101EB00108D
:101D300061688900B0FBF1F7FEF77AFED2E08A42D3
:101D400001D082423DD1FEF773FE00EBC00101EBF2
:101D5000001061684900B0FBF1F0B0FBF5F006013E
:101D6000FEF766FE00EBC00101EB00106168490060
:101D7000B0FBF1F7FEF75CFE00EBC00101EB0010D9
:101D800061684900B0FBF1F0B0FBF5F06FF01801AD
:101D9000484307EB800108EBC100B0FBF5F000F011
:101DA000F80006EB4006FEF743FE00EBC00101EB36
:101DB000001061684900B0FBF1F7FEF739FE3CE026
:101DC00055E0FEF725FE00EBC00101EB0010616855
:101DD0004900B0FBF1F0B0FBF5F00601FEF718FE8C
:101DE00000EBC00101EB001061684900B0FBF1F7A6
:101DF000FEF70EFE00EBC00101EB00106168490028
:101E0000B0FBF1F0B0FBF5F06FF01801484307EBC1
:101E1000800108EBC100B0FBF5F000F0F80006EB24
:101E20004006FEF7F5FD00EBC00101EB0010616814
:101E30004900B0FBF1F7FEF7EBFD00EBC00101EB51
:101E4000001061684900B0FBF1F0B0FBF5F06FF0F5
:101E50001801484307EB800108EBC100B0FBF5F027
:101E600000F00700216830448860BDE8F081FEF78B
:101E7000CFFD00EBC00101EB001061688900B0FBF1
:101E8000F1F6FEF7C5FD00EBC00101EB0010616843
:101E90008900B0FBF1F0B0FBF5F06FF0180148439A
:101EA00006EB800108EB0110B0FBF5F000F0F00646
:101EB000FEF7AEFD00EBC00101EB00106168890088
:101EC000B0FBF1F0B0FBF5F006EB0016FEF7A0FD5D
:101ED00000EBC00101EB001061688900B0FBF1F775
:101EE000FEF796FD00EBC00101EB00106168890070
:101EF000B0FBF1F0B0FBF5F06FF01801484307EBD1
:101F0000800108EB0110B0FBF5F000F00F00A9E72D
:101F1000001401400010014090F83910212901D02F
:101F2000022070478168B1F5805F016A0BD04A1CBE
:101F30000262026809785160C18C491E0904090CCB
:101F4000C1840ED017E009880268C1F3080151600E
:101F500001690029016A02D0491C0162ECE7891C71
:101F6000FBE70168CA6822F08002CA600068C168A5
:101F700041F04001C160002070472DE9F0419846D2
:101F800017460E460446069D1DE0681C1BD02DB169
:101F9000FEF7FEFBA0EB0800A84214D92068C16838
:101FA00021F4D071C1602068416921F001014161D3
:101FB000202084F8390084F83A00002084F83800A2
:101FC0000320BDE8F0812068006836EA000004D0F4
:101FD0000020B842D9D00020F3E70120F9E7000043
:101FE00038B5094C20680168C943890603D44068A4
:101FF000C0B200F0F7FB2068016840680090BDE8BF
:1020000038400148FFF7E6B88400002038B5094C95
:1020100020680168C943890603D44068C0B200F053
:102020000FFC2068016840680090BDE83840014816
:10203000FFF7D0B8C4000020FEE700000FB4054B46
:1020400010B503A9044A029800F02CF810BC5DF802
:1020500014FB000009250008240000200907090ED0
:10206000002804DB00F1E02080F80014704700F045
:102070000F0000F1E02080F8141D70470048704701
:102080002800002002E008C8121F08C1002AFAD167
:1020900070477047002001E001C1121F002AFBD1E8
:1020A000704700002DE9FF4F8DB00F460546002612
:1020B00006E025280BD0DDE90F1290476D1C761C39
:1020C00028780028F5D111B03046BDE8F08F002403
:1020D000A246A1460122EC4900E0044315F8013F65
:1020E000203B02FA03F00842F7D128782A2810D0C2
:1020F0006FF02F022878A0F13001092914D80AEBDB
:102100008A0102EB410144F0020400EB010A6D1C5C
:10211000F0E701CF5FEA000A03D544F40054CAF1A6
:10212000000A44F002046D1C28782E2817D115F8F7
:10213000010F44F004042A280ED06FF02F022878F3
:10214000A0F1300109290AD809EB890102EB41010C
:1021500000EB01096D1CF2E757F8049B6D1C287811
:102160006C280FD006DC4C2817D068280DD06A28C0
:1021700014D104E0742810D07A280FD10DE044F473
:1021800000140AE044F4801401E044F44014697837
:10219000814202D104F580146D1C6D1C2A786E2AD0
:1021A0001FD00CDC632A31D004DC002A8BD0582AE3
:1021B00011D1A3E0642A68D0692A0CD165E0732AA2
:1021C0002ED004DC6F2A73D0702A04D19BE0752ACC
:1021D0006FD0782A6ED01046DDE90F129047761C3A
:1021E00050E1C4F30250022806D0032809D0042885
:1021F00001CF09D0066045E101CFF117C0E90061C8
:1022000040E101CF06803DE106703BE117F8040B89
:102210008DF8000000208DF80100EB46012003E05E
:1022200057F804BB4FF0FF3061074FF0000102D4B4
:102230000DE008F10101884649450FDA8045F8DBD9
:102240001BF808100029F4D108E008F101018846C4
:102250008142FADB1BF808100029F6D1DDE90F23D3
:10226000AAEB08008146214600F036F9304400EB25
:10227000080604E0DDE90F121BF8010B9047B8F1E6
:102280000108F7D221464846F7E00A21C4F3025379
:102290004FF0000B0891022B04D001CFC117032B84
:1022A00009D00AE0FF1D27F00707F7E8020108E060
:1022B00032E01FE020E000B2C117042B01D140B290
:1022C000C117031E71F1000307DA4FF0000CD0EBC9
:1022D0000C006CEB01012D2302E0230504D52B2318
:1022E0008DF82430012303E0E30701D02023F7E732
:1022F000984658E00A2110E010210EE010204FF01F
:10230000000B08900CE010214FF0000B44F0040487
:102310004FF00809089103E008214FF0000B0891E5
:10232000C4F30253022B04D001CF0021032B06D0AB
:1023300006E0FF1D27F00707F7E8020103E080B27F
:10234000042B00D1C0B24FF0000823072BD5702A10
:1023500007D0DDF820C08CF0100C5CEA0B0C05D027
:102360000EE040238DF82430012308E050EA0103F9
:1023700006D030238DF824308DF82520022398468E
:10238000DDF820C08CF0080C5CEA0B0C0BD150EA95
:10239000010301D1630706D530238DF824304FF0B7
:1023A0000108A9F10109582A04D038A20B9208AA01
:1023B0000A920BE03AA2F9E75B46089AFDF708FF9C
:1023C0000B9B9B5C0A9A521E0A92137050EA010200
:1023D000F2D10A98ADEB000000F1200B600702D5A6
:1023E00024F4803401E04FF00109D94502DDA9EB66
:1023F0000B0000E0002000EB0B0141440890AAEB29
:10240000010AE00306D4DDE90F232146504600F01F
:1024100063F806444FF0000908E009A911F8090023
:10242000DDE90F12904709F10109761CC145F4DB83
:10243000E0030CD5DDE90F232146504600F04CF8AF
:10244000064404E0DDE90F1230209047761C08991D
:10245000481E08900029F5DC08E00A980A990078DF
:10246000491C0A91DDE90F129047761CBBF100016F
:10247000ABF1010BF1DC21465046DDE90F2300F002
:1024800019F806446D1C1BE609280100303132336F
:1024900034353637383961626364656600000000A0
:1024A000303132333435363738394142434445468A
:1024B000000000002DE9F041044600251E461746A5
:1024C000880404D405E039462020B0476D1C641E02
:1024D000F9D52846BDE8F0812DE9F04104460025F4
:1024E0001E469046C80301D5302700E02027880407
:1024F00004D505E041463846B0476D1C641EF9D549
:102500002846BDE8F081000013B54FF6FF730122A5
:1025100069460248FEF7AAFF00981CBDC4000020CF
:10252000FEF744F9FFF7D6FAFFF718F8FFF76AF855
:10253000394838494FF4E134002580E832000C2650
:10254000C560C0E904568561C561FEF7CBFE32481F
:102550003249403080E83200C560C0E904568561E8
:10256000C561FEF7BFFE01222D492B48FEF754FF3F
:10257000294801222A494030FEF74EFF294E2AA061
:10258000FFF75CFD36A0FFF759FD43A0FFF756FDAE
:1025900025A0FFF753FD224CA41F2078012814D159
:1025A0001D494BA08031FFF749FDE078012804D098
:1025B0002079012801D0FDF747FF17492289803192
:1025C0000020FFF771F925702581A07828B94FF414
:1025D00080714048FEF7D2F830B9FFF76DF8002857
:1025E00001DD00F081F8A570607801280DD13A492D
:1025F00037A0FFF723FD052238A13748FDF73DFE40
:1026000008B9FFF70DF965706581761E002EC4DCF0
:10261000344EC2E700440040840000200014014012
:1026200006000020A08601002D2D2D2D2D2D2D2DF5
:102630002D2D2D2D2D2D2D2D2D2D2D2D2D2D2D2DCA
:102640002D2D2D2D2D2D2D2D2D2D2D2D2D2D2D2DBA
:102650002D2D2D2D2D2D2D2D2D2D2D2D0D0A000047
:102660007C7C20202020202020202057697A466969
:102670003336302053504920746F20554152542036
:10268000546573742050726F6772616D2020202032
:102690002020207C7C0D0A007C7C20202020202013
:1026A000202020202020202020202020205665725D
:1026B00020302E31202020202020202020202020EB
:1026C00020202020202020202020207C7C0D0A009B
:1026D0002573000000000240040300206368656366
:1026E0006B000000A0BB0D0070B51C4C00262079CB
:1026F00001280AD0E078002812D1052218A11A4832
:10270000FDF7BBFD012560B110E0112217A11648AD
:10271000FDF7B3FD002803D119A0FFF78FFC267148
:1027200070BD6571A6811AA0FFF788FC6079012849
:10273000F6D1A0890922401CA08119A10A48FDF701
:102740009CFD0028ECD119A0FFF778FCA0890A288D
:10275000E6D21DA0FFF772FCE57070BD00000020FE
:102760000D0A7265616479001C0900206C696E6B4A
:10277000206973206E6F742076616C6964000000BC
:1027800073656E64206572726F722121200D0A00DC
:1027900057697A466933363020426F6F740D0A00EC
:1027A000434F4E4E4543540D0A00000057697A4688
:1027B000693336302053657276657220436F6E6ED2
:1027C000656374200D0A000057697A466933363014
:1027D000205472616E736D6F6465207374617274DE
:1027E000200D0A0030B5154A134901251389C85434
:1027F0005B1C9CB2002314810A2802D0032C02D057
:102800000AE00B5515E008782B2805D148782B28CD
:1028100002D188782B280AD01079012806D11069B6
:10282000844203DB0B5515701371136130BDD370F7
:10283000CB70157030BD00000401002000000020A6
:10284000074A064B51895854491C89B251810D28B9
:1028500003D1002058540120507070470403002019
:10286000000000200000000000000000010203043E
:102870000607080900000000010203040040404070
:102880004040404040404141414141404040404043
:1028900040404040404040404040404040050202EF
:1028A00002020202020202020202020202202020AE
:1028B000202020202020200202020202020290900A
:1028C0009090909010101010101010101010101008
:1028D000101010101010101002020202020288885C
:1028E0008888888808080808080808080808080868
:1028F0000808080808080808020202024000000050
:102900007D28000824290008000000202C00000079
:1029100084200008502900082C0000200C11000021
:1029200094200008000000000000000000000000EB
:1029300000000000000000000024F400010000007E
:102940001000000000000000000000000000000077
:040000050800019955
:00000001FF
